:020000041000EA
:1000000000B5324B212058609868022188439860DF
:10001000D860186158612E4B002199600221596106
:100020000121F02299502B49196001219960352056
:1000300000F044F80222904214D00621196600F024
:1000400034F8196E01211966002018661A6600F04E
:100050002CF8196E196E196E052000F02FF8012189
:100060000842F9D1002199601B49196000215960AB
:100070001A491B48016001219960EB211966A021F2
:10008000196600F012F800219960164914480160C1
:100090000121996001BC002800D000471248134993
:1000A000086003C880F30888084703B5996A0420EC
:1000B0000142FBD001200142F8D103BD02B5186610
:1000C0001866FFF7F2FF186E186E02BD00000240BE
:1000D000000000180000070000035F00212200005C
:1000E000F4000018222000A00001001008ED00E03C
:1000F00000000000000000000000000074B24E7A12
:1001000000200420F7010010C3010010C5010010F9
:10011000C1010010C1010010C1010010C101001097
:10012000C1010010C1010010C1010010C701001081
:10013000C1010010C1010010C9010010CB01001065
:10014000CD010010CD010010CD010010CD01001037
:10015000CD010010CD010010CD010010CD01001027
:10016000CD010010CD010010CD010010CD01001017
:10017000CD010010CD010010CD010010CD01001007
:10018000CD010010CD010010CD010010CD010010F7
:10019000CD010010CD010010CD010010CD010010E7
:1001A000CD010010CD010010CD010010CD010010D7
:1001B000CD010010CD010010CD010010CD010010C7
:1001C00000BE00BE00BE00BE00BE00BEEFF3058054
:1001D000103800BEF2EB887148EA001070EA001097
:1001E0003402001090A31AE700201F49086006C8D7
:1001F00081F3088810471D48006800282FD10DA4FE
:100200000ECC002902D000F012F8F9E71849194A7B
:10021000002000E001C19142FCD1174988471749ED
:1002200088471749884700BEFDE701C901C29A42C5
:10023000FBD3704770EA0010C00000201C2900208A
:10024000CC1201100000042000000420CC12011088
:10025000001004200010042000000000704709482E
:1002600004F098FF0047000008ED00E0000000D017
:10027000202900203437002069390010590300106C
:100280009D3A00105756000006005250ABB3605321
:1002900070E3001006005250861C030280E3001039
:1002A000060052505422A29D88E3001005005250CF
:1002B000DE65F468CC120110F8B5C0460448054B61
:1002C00010B5834203D0044B002B00D0984710BDDB
:1002D0001C2900201C2900200000000006480749B6
:1002E000091A8B10C90FC91810B5491003D0044B57
:1002F000002B00D0984710BD1C2900201C2900208D
:100300000000000010B5074C2378002B09D1FFF73F
:10031000D5FF054B002B02D0044800E000BF0123AD
:10032000237010BD282A00200000000078B40010BF
:10033000054B10B5002B03D00449054800E000BF71
:10034000FFF7CCFF10BDC046000000002C2A0020A3
:1003500078B400107047C046F0B5DE4645465746B3
:100360004E46E0B5ABB006F079FF192001F072FE01
:10037000D02380221B0692045A62414802F034FDC9
:10038000404B0125029311230193013310220021D8
:1003900000930395013309A800F0E6FA09A905A81E
:1003A00000F0DCF8642002F01FFD374C2378BFF327
:1003B0005B8F1D4258D0354B9946180000F0F6FB74
:1003C000484600F017FC00239846314B9A46314BC3
:1003D0009B4608E0D02380221B0692045A61FA2033
:1003E000800002F001FD09A905A800F0B7F8059CFE
:1003F000069D201C06F09AFC02000B005046079E4A
:10040000089F06F01FFF281C06F090FC0B0025211A
:1004100002000091584606F015FF301C06F086FCDD
:1004200002000B001C4806F00DFF381C06F07EFC95
:1004300002000B00194806F005FF194806F060FE9F
:10044000331C2A1C48460097211C00F005FC43463B
:1004500001225340DBB29846002BBBD1D02380222F
:100460001B0692049A61BAE7200009F003F90028FC
:10047000A1D0200009F01AF90A480AF051F99AE7C8
:10048000B80B000020A10700782A0020A02A002035
:1004900078B4001090B40010A8B40010C0B40010DC
:1004A0008CB4001055030010436870B55A10294BE6
:1004B00004009C46624493105B430D001220215EB1
:1004C000581348431026A15FC010514349104018EB
:1004D000802109028C468014E18960444143C9139C
:1004E00036D01826A05FDB1243431626A05F424396
:1004F0005200D2181420235E92101B049B181B1369
:100500005D196B015B1B9B005B1998001B18980021
:100510001B18114A5B42981816D4400004F090FE54
:100520000200D3085B431E21605E5B0B58431C2511
:10053000635F91084B4300135B13C0181A21635E7D
:10054000C0180011801870BD04F07AFE4200E8E780
:100550000020F8E70006FFFF000050C3F0B50C00D4
:1005600070213F22635C46461A404023D6464F46E0
:100570001A43131CC0B562545A079B065B0F012631
:10058000120E9B001343742284B002AD33438046A5
:100590002A706B70C046C046C0463300E26CD0275C
:1005A00093403F06BB61C046C046C04602222900B8
:1005B000A06B0AF001FFC046C046C046E36C9E40F7
:1005C0007E61C046C046C0460A2002F00DFC6B4664
:1005D000DE1D0D235B429A460E3399465346226830
:1005E00013432B70C046C046C0464B46E26C934056
:1005F000BB61C046C046C04601222900A06B0AF07C
:10060000DBFE0A2002F0F0FB012332000021A06B88
:100610000AF06AFEC046C046C0464B46E26C9340B4
:100620007B61C046C046C0460A2002F0DDFB0120C7
:1006300002F0DAFB33781B07D0D4092322685B422F
:1006400013433370C046C046C0464B46E26C9340ED
:10065000BB61C046C046C04601223100A06B0AF013
:10066000ABFE0A2002F0C0FB08232A000021A06B89
:100670000AF03AFEC046C046C0464B46E26C934084
:100680007B61C046C046C0460A2002F0ADFB6B78D5
:1006900029781B0109031943AB78EE781B11194324
:1006A0002B7936031B011E436B7920001B111E435F
:1006B000FFF7FAFE5A4AED8894466DBA2621625E2B
:1006C000ADB26368AD031205AA1A2821655E6344C2
:1006D0005D43551B8022D20194466544EA13802570
:1006E00021212D02AC462225615C655759436B439D
:1006F000C91261449B124B43802189038C469B1293
:100700002421655E63445D4380239B019C466544D0
:10071000AD1355432022EB135B43A25CDB11534323
:100720001B11ED1AEB432289DB171D4033119B1A75
:100730005B435200F610B61A0A21625E1B13564341
:100740000C21625EF61253439B13F618666005F0A7
:100750005BF8344B002204F0C0FF05F09DF8C8237D
:10076000071CE0675B059D4200DD1D00281305F0B6
:100770004BF800222C4B04F0CEFF05F08DF8A0675B
:10078000B00080198030001205F03EF80022254BA1
:1007900004F0A3FF05F080F824496067381C06F0D8
:1007A000AAFA06F0C3FA224A224B05F063FC05F0D0
:1007B00073F8051C606F06F0B9FA1F4A1F4B04F06E
:1007C00083FF0600FE200F008005291C06F08DFA2D
:1007D00006F0ACFA02000B003000390004F09BFF79
:1007E0000600281C0F0006F0A1FA154A154B04F06C
:1007F00092FF02000B003000390004F06EFF05F09C
:100800004BF88023E0504346743407CC07C340467E
:1008100022681A6004B01CBC90469946A246F0BDFE
:1008200000D4FEFF000059400000503F00507D44BE
:100830006C45D9CC955BC83F6666666666127140AA
:1008400039B4C876BE9F7A3F7823F0B5026883B08A
:100850005B42134307006A4604005437D371C04615
:10086000C046C04601252B00C26CD02693403606F8
:10087000B361C046C046C0466B460122D91D806B9D
:100880000AF09AFD0A2002F0AFFA1A233A0000217A
:10089000A06B0AF029FDC046C046C0462B00E26CA2
:1008A00093407361C046C046C0460A2002F09CFADD
:1008B000636DA360A36DE360E36D2361236E6361E9
:1008C000636EA361A36EE3616D23E25C4D3BE25472
:1008D00022683F3B13436A46D371C046C046C046B8
:1008E0002B00E26C9340B361C046C046C0466B46E5
:1008F0000122D91DA06B0AF05FFD0A2002F074FAF4
:1009000008233A000021A06B0AF0EEFCC046C04666
:10091000C046E36C9D407561C046C046C0460A2093
:1009200002F062FA5523E25C013BE35C12021343DE
:10093000A3845623E25C353BE2543633E25C013358
:10094000E15C493B12010B401343E3845A225923D3
:10095000A25CE35C12011B11134323855B23E25C61
:10096000393BE25403B0F0BDF0B5C64600B582B0E5
:100970001E000BAB0400187880232360089B2264C0
:10098000A364099B1700E36470220A9BA55C23659E
:1009900083013F2028401843E1636664A054002986
:1009A00000D1F3E0012900D0C9E07A48A0630A9998
:1009B00008F0E6FD0121380001F01CFB0121089838
:1009C00001F018FB0121300001F014FB724D2B786F
:1009D000BFF35B8FDB0700D4C2E0099801F03AFB5C
:1009E00001231D00099A6D4E9540D02212065562D2
:1009F00055613278BFF35B8F134200D1A4E03023FE
:100A000022685B4201AE13433370C046C046C04605
:100A100001252B00E26CD02793403F06BB61C04606
:100A2000C046C04601223100A06B0AF0C5FC0A2076
:100A300002F0DAF9220001230021A06B6E320AF0E5
:100A400053FCC046C046C0462B00E26C93407B611D
:100A5000C046C046C0460A2002F0C6F92000FFF793
:100A6000F3FE70233F229846E35C93431B2213431B
:100A70004246A35474233380C046C046C0462B0070
:100A8000E26C9340BB61C046C046C04602223100C2
:100A9000A06B0AF091FCC046C046C0462B00E26C39
:100AA00093407B61C046C046C0460A2002F09CF9D4
:100AB000B9235B003380C046C046C0462B00E26CC1
:100AC0009340BB61C046C046C04602223100A06BC5
:100AD0000AF072FCC046C046C0462B00E26C934050
:100AE0007B61C046C046C0460A2002F07DF94346FD
:100AF000E25C91065307490F89001B0E0B439209D4
:100B00001343742273703270C046C046C0462B0037
:100B1000E26C9340BB61C046C046C0460222310031
:100B2000A06B0AF049FCC046C046C046E36C9D403D
:100B30007D61C046C046C0460A2002F055F920003B
:100B400002B004BC9046F0BD300008F093FD0028D0
:100B500000D154E7124B30005D6008F0A7FD4EE76E
:100B6000280008F087FD002800D136E7089BFF0128
:100B70005A049B0513431F4336033E430A27094B80
:100B80003E4328005E6008F091FD26E70648A0631A
:100B90000DE7C046000004407C2A0020802A002087
:100BA000781E0020701E002000C00340002310B5F6
:100BB000436082B0040000F0E7F800F0A3F900F011
:100BC0004DFBFA20400002F00FF9094806F018F931
:100BD0002060002809D0FF23C8220093C8210F33CA
:100BE00000F024FF012002B010BD0020FBE7C0464A
:100BF0008813000070B50025012684B00400006849
:100C000000F036FFFF2000F039FFC323C322052187
:100C1000052002950196009501F02AF9FF2319217C
:100C20000B4A009319200B4B019501F085F92068C0
:100C300000F08AFBFA20400002F0D6F800F064FAD7
:100C4000206800F015FF0120267204B070BDC04678
:100C5000E0B40010CC1F0020F0B5C646FF25884642
:100C600000B598B0171C1E1CBE22BE2304003C21F8
:100C70001420009500F06EFF404606F057F8020081
:100C80000B0004A8344904F041FA381C06F04EF871
:100C900002000B0009A8314904F038FA301C06F0B4
:100CA00045F802000B000EA82D4904F02FFA1E98FB
:100CB00006F03CF8002702000B0013A8294904F0B5
:100CC00025FA294E462133001E2004AA01970095DB
:100CD00001F032F9330064211E2009AA0197009522
:100CE00001F02AF9330082211E200EAA01970095F7
:100CF00001F022F93300A0211E200197009513AACC
:100D000001F01AF9237A002B19D001230293013341
:100D10000193AA223C211E2000953A3300F0E4FF03
:100D20000122237A20685340237200F069FB0120DE
:100D300063680133636018B004BC9046F0BD0122C3
:100D400002920132019200933C213C231E20A832E2
:100D500000F0CAFFE4E7C046ECB40010F4B40010A1
:100D600000B500100CB50010C41F002000B583B002
:100D70006B46D91D034B0870012218680AF01CFB52
:100D800003B000BD54340020F8B5D024802780255E
:100D90008026184B18481949186008F0F1FB01210A
:100DA0000C2001F027F901210A2001F023F901218B
:100DB0000B2001F01FF92406072001F04BF96D000C
:100DC0006762082001F046F9B60165620D2001F066
:100DD00041F96662062001F03DF94023002201211D
:100DE0000620A36201F01EF9A7610020A6616561DB
:100DF000F8BDC046543400200000044000127A00C0
:100E0000F8B5D0248025CE46474680232406AD0180
:100E100080B50700A3613220A561FFF7A7FF9923E2
:100E20009946193B3E0098466561B944434630787F
:100E300063610136A561FFF799FF65614E45F5D104
:100E40002E4806F05DF963685B0609D5D0250124BC
:100E50002D060A2001F0C8FF6B689B091C42F8D1DF
:100E6000D024802580262406AD01254806F048F9C7
:100E7000A6613F20A561FFF779FF99236561F85CC2
:100E80006661A561FFF772FF65610320A661A56138
:100E9000FFF76CFF9A236561F85C6661A561FFF757
:100EA00065FF65610420A661A561FFF75FFF9B23D5
:100EB0006561F85C6661A561FFF758FF9C23656179
:100EC000F85C6661A561FFF751FF9D236561F85CE1
:100ED0006661A561FFF74AFF65612C20A661A561E7
:100EE000FFF744FF9E236561F85C6661A561FFF72B
:100EF0003DFF65610CBC90469946F8BD14B50010E5
:100F00002CB50010F0B5D0248025C64624066D000F
:100F100000B5C820656101F067FF0220A56101F0FE
:100F200063FFC820656101F05FFF744F380006F071
:100F3000E7F863685B0607D5FF3D0A2001F054FF20
:100F400063689B091D42F8D16D4BD02418008025A1
:100F5000984606F0D5F880232406AD01A36112203F
:100F6000A561FFF703FF3800656106F0C9F8636803
:100F70005B0607D501250A2001F036FF63689B094F
:100F80001D42F8D1D024802580262406AD0140469C
:100F900006F0B6F80120A661A561FFF7E7FE6561DE
:100FA000C7206661A561FFF7E1FE6561002066610B
:100FB000A561FFF7DBFE656101206661A561FFF7B2
:100FC000D5FE65611120A661A561FFF7CFFE6561C1
:100FD00001206661A561FFF7C9FE65614420A66135
:100FE000A561FFF7C3FE656100206661A561FFF79B
:100FF000BDFE656118206661A561FFF7B7FE6561FA
:101000004520A661A561FFF7B1FE6561C720666155
:10101000A561FFF7ABFE656100206661A561FFF782
:10102000A5FE656100206661A561FFF79FFE656111
:1010300000206661A561FFF799FE65613C20A6610D
:10104000A561FFF793FE656101206661A561FFF769
:101050008DFE65611820A661A561FFF787FE6561B9
:1010600080206661A561FFF781FE65612220A6618F
:10107000A561FFF77BFE6561B1206661A561FFF7A1
:1010800075FE65612020A661A561FFF76FFE6561B1
:101090004E20A661A561FFF769FE656100206661CB
:1010A000A561FFF763FE65614F20A661A561FFF7AB
:1010B0005DFE6561C7206661A561FFF757FE65614A
:1010C00000206661A561FFF751FE3800656106F0FA
:1010D00017F863685B0607D501250A2001F084FE36
:1010E00063689B091D42F8D1404606F009F805489F
:1010F000FFF786FE04BC9046F0BDC04614B5001054
:101100002CB50010841E0020F0B5D0248025C646E2
:1011100024066D0000B5C820656101F065FE02205F
:10112000A56101F061FEC820656101F05DFE484FD8
:10113000380005F0E5FF63685B0607D5FF3D0A2030
:1011400001F052FE63689B091D42F8D1D02480252E
:101150008026404B24061800AD01984605F0D0FFCC
:101160003D48FFF74DFE3720A661A561FFF7FEFD64
:10117000656100206661A561FFF7F8FD65610020EB
:101180006661A561FFF7F2FD656100206661A561FA
:10119000FFF7ECFD656100206661A561FFF7E6FDE4
:1011A000656100206661A561FFF7E0FD6561402093
:1011B0006661A561FFF7DAFD656100206661A561E2
:1011C000FFF7D4FD656100206661A561FFF7CEFDE4
:1011D000656100206661A561FFF7C8FD65610020BB
:1011E0006661A561FFF7C2FD65613C20A661A5614E
:1011F000FFF7BCFD656180206661A561FFF7B6FD64
:1012000065612220A661A561FFF7B0FD6561C02080
:101210006661A561FFF7AAFD65612020A661A56151
:10122000FFF7A4FD3800656105F06AFF63685B069F
:1012300007D501250A2001F0D7FD63689B091D42EF
:10124000F8D1404605F05CFF04BC9046F0BDC046B6
:1012500014B500102CB50010241F0020F8B5D025BF
:10126000802447468023CE462D06A40180B5242045
:10127000AB61AC61FFF77AFDC823802798466C61AB
:1012800080261924B601013C6F61FF20AE61A4B233
:10129000FFF76CFD6E61002CF5D14346013B9BB21C
:1012A0009846002BECD180232620AB61AE61FFF77E
:1012B0005DFDC8236E619846D025483B994680273E
:1012C0002D0680261924B601013C6F61FF20AE6116
:1012D000A4B2FFF74BFD6E61002CF5D14346013BF4
:1012E0009BB29846002BECD14B462220AB61AE61FD
:1012F000FFF73CFD4B466E61C7206B61AE61FFF7A7
:1013000035FD4B466E612020AB61AE61FFF72EFDCF
:101310000B486E6105F0F4FE6B685B0609D5D025BD
:1013200001242D060A2001F05FFD6B689B091C4219
:10133000F8D1044805F0E4FE0CBC90469946F8BD8F
:1013400014B500102CB50010F0B5D6464F464646F1
:10135000D025C0B5802680232D06B6010400AB61E0
:101360002420AE61FFF702FD224B2700994680231F
:101370009A4698466E611937A1443C00193C434691
:1013800020786B610134AE61FFF7F0FC6E61BC4206
:10139000F5D119342700A145EFD153462220AB6186
:1013A000AE61FFF7E3FC53466E61C7206B61AE612F
:1013B000FFF7DCFC53466E612020AB61AE61FFF7A6
:1013C000D5FC0D486E6105F09BFE6B685B0609D588
:1013D000D02501242D060A2001F006FD6B689B092B
:1013E0001C42F8D1054805F08BFE1CBC904699467E
:1013F000A246F0BDA113000014B500102CB50010DA
:10140000F0B5D6464F464646D025C0B58026802347
:101410002D06B6010400AB612420AE61FFF7A6FCE7
:10142000224B2700994680239A4698466E611937C9
:10143000A1443C00193C434620786B610134AE6105
:10144000FFF794FC6E61BC42F5D119342700A14529
:10145000EFD153462220AB61AE61FFF787FC5346C4
:101460006E61CF206B61AE61FFF780FC53466E6109
:101470002020AB61AE61FFF779FC0D486E6105F08D
:101480003FFE6B685B0609D5D02501242D060A2096
:1014900001F0AAFC6B689B091C42F8D1054805F0D5
:1014A0002FFE1CBC90469946A246F0BDA113000039
:1014B00014B500102CB5001070B5454CE389B42B61
:1014C00056D020D8002B06D05A2B1BD12389013BA4
:1014D0005B1A010098B2238A022B20D0022B29D854
:1014E000002B20D023895D1E281A80B283421DD391
:1014F00063898B421AD3E38A022B42D0042B24D077
:10150000072B52D070BD87256D00AB42FAD163899D
:10151000013B1B1A080099B2238A022BDED1638992
:10152000013B591A89B223898342E1D2294805F047
:10153000E7FDE7E7032BE5D123895D1E281A6589BE
:1015400080B2013D691A89B2D0E7638AC026594347
:1015500083089BB2C9180323184040001A40064173
:101560009201024125686C5CB44322436A54C9E786
:101570002389013B181A638980B2013B591A89B249
:10158000A9E7638A5943C3089BB2C91823685C184A
:10159000595C0723184079330341002A02D199434B
:1015A0002170AFE70B432370ACE7638A256859438A
:1015B00043089BB2C9180123F0241840800004415D
:1015C000120102416B5CA3431A436A549AE7C04676
:1015D00058340020DCDE0010F0B5DE4657464E469B
:1015E0004546E0B599465B0089B0013B0F009B463C
:1015F00003900592002B00DC76E04B46CB1A049357
:1016000013010793032313409B0106934B464A465D
:101610009BB20093831A9BB26E4A9846002392466F
:101620006D4E0193039A4946944663445B1A51D424
:10163000049B002B4EDB019900248C46624493B23C
:101640000293009BFD1AADB234E0F289B42A00D1B6
:1016500075E050D8002A00D16EE05A2A20D1009AB5
:10166000338994464246013B63441B1A9BB2318A3C
:10167000022950D0022954D8002950D03189481E5F
:10168000C31A9BB28B421ED8718991421BD3F18A37
:10169000022962D0042900D171E0072900D189E034
:1016A000013424B25C4515DA4A460135E319ADB27E
:1016B0009B1A0FD4A4B2B188381980B2414502D325
:1016C000F188A942C1D20134504624B205F018FD78
:1016D0005C45E9DB4246019B013201331BB292B209
:1016E000904601935B459DDB09B03CBC9046994612
:1016F000A246AB46F0BD87235B009A42D0D1009B47
:1017000072899C46013A029B6244318AD21A92B293
:101710002B000229AED1718901398A1A92B231891E
:10172000B0E70329BCD13189481EC31A70899BB226
:101730000138821A92B2A5E72A00434697E700993A
:1017400033898C46029A013B63449B1A72899BB28F
:10175000013A6244121A92B289E7718A30684A43A8
:10176000D90889B252188118825C059800281AD1CC
:1017700007301840802303419A430A7090E7718A2A
:1017800003204A43990889B25218C02103405B00E4
:1017900019413068805C8843069919410B00316813
:1017A00003438B547CE707201840802303411343F5
:1017B0000B7075E7718A30684A43590889B252182C
:1017C00001210B409B00EF311941805C8843079950
:1017D000E3E7C046DCDE001058340020F0B5574681
:1017E0004E464546DE469946E0B583B00CAB1B88B5
:1017F000072601930DAB1B88824698464B46D88836
:101800009B880F001E40711E8E41203AD908711826
:1018100016004A4612684643944600224E43009200
:101820006644002853D0364A93460025002B46D004
:101830004246B84617001DE0802323413278134208
:101840004CD0534658192E4B80B29B88834221D3EB
:101850002B4BDB8843451DD34146019AFFF72CFEF5
:101860004B469B88073C624254410135ADB2361964
:101870009D421CD207242C40FF2FDDD18022224123
:1018800031780A42EED0534658191D4B80B29A88DF
:101890008242DED21B4805F033FC4B46073C6242D5
:1018A000544101359B88ADB236199D42E2D33A00CE
:1018B000474690465A0700D001364A46D088009ADB
:1018C0000137013292B20092BFB28242ADD303B06F
:1018D0003CBC90469946A246AB46F0BD53465819CB
:1018E0005B469B8880B28342D4D35B46DB8843450A
:1018F000D0D33A004146FFF7DFFD4B469B88B1E766
:1019000058340020DCDE0010F0B55746DE464E4667
:101910004546E0B587B002931F0010AB0D003C4E6A
:101920001988019211AB8A461978B38804008B4656
:101930001000A34254D3F288AA4251D383424FD31A
:10194000BA424DD3021BD117501848407A1B009061
:10195000D0171118414003910199D0178C42894149
:10196000821A424091462B4A1140080002212A4A1D
:101970009446BD4292410F00604403990490009840
:1019800017407A1E471A05927A0090460EE0019B96
:10199000A34228D0039BFF1A049B9C467B009846D9
:1019A000009B6444A4B243450DDAB388A34221D31B
:1019B000F388AB421ED35B46524629002000FFF756
:1019C0000BFEC145E3DD029BAB420CD0009B9C4665
:1019D000059B67449C467B0065449846ADB2E4E7AE
:1019E0000E4805F08DFB07B03CBC90469946A246D8
:1019F000AB46F0BD0A4805F083FB2100B2880948D8
:101A000005F020FC2900F288074805F01BFCD8E708
:101A1000583400200200FFFFFFFF000004DF001029
:101A200044DF001084DF0010A8DF001030B503ACE5
:101A300025880E4C2060022021816281A581E082F0
:101A400048070FD1C80860820020A282E38120826B
:101A5000002B04D0B42B02D00B0011001A00E2803E
:101A6000A18030BDC808013080B2ECE758340020B6
:101A7000014B18607047C0465834002070B5344997
:101A8000CB8A022B22D0042B02D0072B40D070BD72
:101A90008E8A002EFBD00024850103011D430543DF
:101AA000800005434A8AEDB20023002A2BD062430E
:101AB0000868C018855401334A8A9BB29A42F6D806
:101AC0008E8A0134A4B2B442EED3E0E78E8A002EAF
:101AD000DDD000244A8AC5B20023002A0ED062431A
:101AE0000868C018855401334A8A9BB29A42F6D8D6
:101AF0008E8A0134A4B2B442EED3C8E70134A4B252
:101B0000B442F6D3C3E70134A4B2B442D9D3BEE79A
:101B10008E8A002EBBD00024050105434A8AEDB20F
:101B20000023002A0ED062430868C0188554013390
:101B30004A8A9BB29A42F6D88E8A0134A4B2B44241
:101B4000EED3A4E70134A4B2A642F6D89FE7C0467C
:101B500058340020F0B557464E46DE464546994675
:101B6000E0B585B00EAB17001A8882460E000192D0
:101B7000494548D213010393032313409B01029369
:101B8000B84240D2564B574D9846012354469B4687
:101B900028E0EB89B42B5DD03CD8002B57D05A2BD2
:101BA0001CD122002B89013B9B1B9BB2298A022955
:101BB0003CD0022940D800293CD02989481EC31AAC
:101BC0009BB28B4214D86989914211D3E98A0229C8
:101BD00049D0042959D0072900D171E00134A4B2B9
:101BE000A7420CD0AB88A34202D3EB88B342D0D239
:101BF00001344046A4B205F083FAA742F2D101367F
:101C0000B6B2B145C1D105B03CBC90469946A2469A
:101C1000AB46F0BD872252009342DFD16A89298A00
:101C2000013A121B330092B20229C2D169890139EB
:101C30008A1A92B22989C4E70329CFD12989481E7B
:101C4000C31A68899BB20138821A92B2B9E732008E
:101C50002300ABE72B896A89013B013A1B1B921BCE
:101C60009BB292B2A2E7698A4A43D90889B2521854
:101C7000296888188A5C019900291AD1073119400E
:101C800080230B419A430270A8E7698A03204A43E4
:101C9000990889B25218C02103405B001941286895
:101CA000805C8843029919410B00296803438B54D7
:101CB00094E70721194080230B411A4302708DE7F6
:101CC000698A28684A43590889B2521859460B4014
:101CD000F0219B001941805C88430399E3E7C046EB
:101CE000DCDE001058340020F0B5DE4657464E4684
:101CF0004546E0B58BB005930400180014AB0D0009
:101D0000198815AB0691197816AB8B461978514F87
:101D100004920191B9888946A14266D3FB88AB42FF
:101D200063D3914261D383425FD3049A131BD817C4
:101D30001918414005980391431BDA179E18564025
:101D4000DA17D31A5340049A029394429241424BB9
:101D500007961A40414B9C46624485429B4108923B
:101D600002221A40531E09938B1B98465B000026E3
:101D70009A4612E0049BA3423AD04346079A9B1A24
:101D80009846089B9C4643465B009A46039B6444E6
:101D9000A4B253451BDABB889946019B0136F6B2C3
:101DA000012B06D10321300003F04AFAC9B2002901
:101DB00033D04C4523D8FB88AB4220D35B46290067
:101DC0002000069AFFF708FC029B5345D2DD059BD5
:101DD000AB420DD0039B9C46099BE0449C46434686
:101DE00065445B009A46ADB2D5E71D4805F088F919
:101DF0000BB03CBC90469946A246AB46F0BD194894
:101E000005F07EF92100BA88174805F01BFA290071
:101E1000FA88164805F016FAD6E74C450AD8FB882A
:101E2000AB4207D35B46FF2229002000FFF7D4FB1B
:101E30000026C9E70B4805F063F92100BA880A4873
:101E400005F000FA2900FA88084805F0FBF9002699
:101E5000BAE7C046583400200200FFFFFFFF000031
:101E600004DF001044DF001084DF0010A8DF001042
:101E7000F0B54746CE4680B583B01F000AAB1B883D
:101E80000C0098460BAB1B78160099460CAB1978E2
:101E9000274B05009A88824219D3DB88A34216D3C8
:101EA000B24214D3BB4212D3002918D0BC4211D283
:101EB0004B46019343462100009323000134320036
:101EC0002800A4B2FFF720FDA742F1D102E0194893
:101ED00005F016F903B00CBC90469946F0BD4B4690
:101EE000019343463200210000932300FFF70CFDCD
:101EF0004B46019343462A002100280000933B00F3
:101F0000FFF702FD4B460193434632003900300093
:101F100000932300FFF7F8FC4B46019343462A0049
:101F2000009339003B003000FFF7EEFCD2E7C046DB
:101F300058340020D0DF0010F0B557464E464546D5
:101F4000DE46E0B585B01F000EAB1B888A460293C3
:101F50000FAB1B8881460393234B16009988984644
:101F6000814233D3D888504530D31278002A30D0FC
:101F7000BB8855469C461D4B4C469B4663461DE020
:101F8000FB88EB18834201DD55464C468C4227D82E
:101F9000854225D8029B29000193039B20000093D2
:101FA0003B00FFF71BFCBB887278E4180136A4B233
:101FB000002A0ED0414640468988C088E3188B42EB
:101FC000DEDDFB884C465D19ADB2DAE7084805F066
:101FD00097F805B03CBC90469946A246AB46F0BD8A
:101FE000584605F08DF8DEE75834002000E0001078
:101FF00040E00010094A830094464022634410B533
:102000001C68C0006240C024144080225201134367
:102010001C60034B9C466044416010BD04C00140FD
:10202000004001400A4B80009C4604236044002984
:1020300001D00C230821002A00D10B000268534074
:102040000C221A4080235B01184302607047C0468F
:1020500004C001400123D0228340120693629361A1
:10206000094A83009446402263441968C0004A40EC
:10207000C02111408022520113431960034B9C463A
:10208000052360444360704704C0014000400140A4
:10209000024B18688007C00F7047C04600C006405A
:1020A000F8B5EFF3108772B60E4E3368002BFCD0F4
:1020B000BFF35F8FCB08C4180725A446C45C012377
:1020C0000D40AB4018002040234208D16246234314
:1020D0001370BFF35F8F306087F31088F8BD100076
:1020E00001F0E0FC2C0100D0F8B5CE4647468C4606
:1020F00080B5EFF3108872B6214D2C68002CFCD00F
:10210000BFF35F8F9A422CD8D4080721055D0619CA
:10211000012411408C402C421FD0072189460639EA
:1021200009E0D408055D06194C460F001440A7408D
:102130003C002F4211D001329342F2D201204042A2
:10214000BFF35F8F00220E4B1A6088F310880028BF
:102150000FDB0CBC90469946F8BD2C431000347040
:10216000EEE7BFF35F8F00232B6088F31088012018
:1021700040426346002BECD0089801F093FCC04627
:102180002C0100D00021044B044ABFF35F8F02C32F
:102190009342FAD17047C046000100D0800100D0C0
:1021A000044A1078431CDBB2172B00D9102313709C
:1021B0007047C046D41F002000B5054B83B0010016
:1021C000009318221F230348FFF78EFF03B000BDC2
:1021D00084E00010482F002001238340002904D010
:1021E000034A1360034A13607047034A1360FBE716
:1021F00080E200E000E100E080E100E001238340B4
:10220000014A13607047C04600E200E0084B1030FE
:102210009B688000C358002B07D0064A00209B1AF9
:102220002F229A424041C0B270470020FCE7C046CE
:1022300000ED00E0D81F0020024B10309B688000AA
:10224000C058704700ED00E070B50D00EFF3108648
:1022500072B60F4A1368002BFCD0BFF35F8F0D4B93
:1022600010309B6884001B590B4A934203D09D4257
:1022700001D001F02FFC074B9B681D51BFF35F8F0E
:10228000BFF35F8F0022024B1A6086F3108870BD87
:10229000240100D000ED00E0CD010010F0B557465C
:1022A0004E464546DE46E0B5894683B00500170038
:1022B000EFF3108A72B65D4A1368002BFCD0BFF3AF
:1022C0005F8F00205A4B18569B4600286CDB5A46FD
:1022D0004400584E2418A400331998469B791035B1
:1022E0001370554BAA009B6801929B589C469B1B00
:1022F0002F2B28D8012261469143CB79BB4208D8C5
:102300006AE053009B189B00F318DD79BD4251D958
:10231000190006228A56002AF3DA0B1D9B46474E07
:1023200043465C46043B1B1B1B05454C5B0D23438E
:102330008B80887141468A714A46424B8E800B6081
:10234000CF718A601BE0404B9C4542D142463F4BD7
:10235000023413803E4B3619043B9E1B3605384B26
:10236000760D1E433B4B56809380FF23D7719371AC
:1023700043464A469A60012342461A4394466146C0
:102380002D4B019A9B689950BFF35F8FBFF35F8F0E
:102390000022264B1A608AF3108803B03CBC90469A
:1023A0009946A246AB46F0BD01F094FB5B46002087
:1023B00018568CE70B1D9B468B8804345B051B1558
:1023C0005B4436199E1BE0233605760D1B021E4327
:1023D000A6E701F07FFBB9E745460B001E489B1BB3
:1023E0005B415843000D194B2B80A31C9C46B44401
:1023F0006546174B0434043B5B1B1B05104D5B0DFE
:10240000AC462B43454636196B800B1F9E1B63461B
:10241000A87148463605760D1E430A4BAE80EF7113
:10242000A8600B60434613439C46A8E7240100D0F4
:102430004D340020D81F002000ED00E001BD000059
:1024400000E0FFFF01488047CD01001000A1FFFF21
:102450000820002001BDFFFFAAAA0000F0B5DE465B
:1024600057464E464546E0B50C0083B0EFF3108961
:1024700072B6594A1368002BFCD0BFF35F8F574BDD
:102480009A68030010339F00D559554A90469542EB
:1024900032D0A54243D0534EAA1B2F2A2CD801225A
:1024A000824092465146504A12681140019151466D
:1024B0004E4A1160BFF35F8FEFF305829346002A07
:1024C00033D101232A009A4393689C4208D178E0D3
:1024D0004B005B189B00F3189968A1422AD01A00A0
:1024E000062151560029F3DA019B002B19D05246E0
:1024F0003F4B1A603C4B1A60384B9B68DD51BFF371
:102500005F8FBFF35F8F0022334B1A6089F310880F
:1025100003B03CBC90469946A246AB46F0BD1500C0
:10252000EAE75246314B1A60E6E79342C9D001F020
:10253000D1FAC6E706215956002922DB4A00501875
:10254000800034188046A0689860E079D871062031
:1025500020569871A0797F2824D8A488F01A6405A1
:10256000241544440019E0240005400D24022043B2
:10257000988052181F4B9200B6181A781970B271D1
:10258000B2E7594600290FD1FF3191711A49918064
:1025900018490A789A71194A9B1B5B415A43120DDC
:1025A0000A70A1E71648E3E7164A1749D21A083A13
:1025B0005002400D01439980144952080A43DA80C1
:1025C00092E70621515613000029B7DA5A46002A2D
:1025D000EAD14546DCE7C046240100D000ED00E02A
:1025E000CD010010D81F002000E100E080E100E0F4
:1025F00080E200E04D34002001BDFFFFAAAA0000E8
:1026000001BD00001220002000F0FFFF00F8FFFFD6
:10261000F0B5EFF3058101240443EFF3108672B6A1
:10262000214A1368002BFCD0BFF35F8F1F4B0500BE
:102630001F4AED1A6D416A43120D1E4D8900AF68A5
:1026400052B27F58A7421CD00621595691421CD045
:1026500012215956914222D01E215956914220D022
:102660002A2159560324914210D0134B19781A701D
:102670008171BFF35F8F00220B4B1A6086F31088C5
:10268000F0BDAB680D4C5C50EFE700246100091908
:1026900089005B18FF21997109499980E5E70124B8
:1026A000F4E70224F2E7C046240100D0D81F00203E
:1026B000AAAA000000ED00E04D340020CD0100107A
:1026C00001BDFFFF054B064A1360064A13605360C5
:1026D0009360D36013615361936170478080808001
:1026E00000E400E004E400E000B5074B83B0010023
:1026F0000093002205230548FFF7F6FC002801DBC4
:102700001F23181A03B000BDA0E0001052340020AF
:10271000024B9C46614489000160704740000034D0
:1027200010B50400FFF73CFD01002000FFF7F0FFAB
:10273000FF232371BFF35F8F10BDC04610B50400A7
:10274000FFF72EFD01002000FFF7E2FFFF23A3802B
:10275000BFF35F8F10BDC04610B504000120FFF726
:102760002BFD034BC3189B002360BFF35F8F10BD8D
:1027700040000034034B9C46614489000160BFF374
:102780005F8F70474000003483680B4810B5844663
:1027900061446244090112019A18591854684B683F
:1027A00001209C4201D802D00020C0B210BD1268A6
:1027B0000B689A42F9D8F7E7FFFFFF0F0A4B196839
:1027C000EFF3108072B60A68002AFCD0BFF35F8F67
:1027D0001B68BFF35F8F00221A6080F3108840BF30
:1027E000002000217047C0461C340020F8B5574631
:1027F00045464E46DE46E0B599460CAB19780DAB22
:102800001B78050090469A460768002912D1BE7BC6
:10281000002E45D074003B68A419033C1B195A785C
:102820003100BA73002A00D1FA7300229A705A70EC
:102830001A7003E00E004C006418033C2C4B00227D
:102840009C46AB6861449C464346090161440B6069
:102850004B464B600A9B8B600B9BCB603B681B1904
:102860009A705A701A707B7B9B46002B2CD03200DA
:102870005946B8687B6898473A68002817D05B4685
:1028800058465B005B441419033BA070D118D35C1D
:10289000002B00D063705B460E707B73B34514D081
:1028A00030003CBC90469946A246AB46F8BD5B461C
:1028B0005B005B44033BD3189E701119125D002A24
:1028C00000D05A705B460B707E7342464B46287DA3
:1028D00000F09EFB041E06D05346002B03D13100AE
:1028E000286800F0E3FD0E9B002BD9D01C70D7E7C1
:1028F000FFFFFF0FF0B5DE4657464E464546002324
:10290000E0B58BB00893664B8200D45800239B46F9
:10291000099000F01DFB626806000F00EFF31085C0
:1029200072B61368002BFCD0BFF35F8F23689C4600
:102930005B7B9946002B68D0A2685A4B90464B446B
:102940001B01984443461A685B6810001900801BFD
:10295000B941002963DD099800F05AFB00230022E9
:10296000984600230692079300239A466368BFF3B4
:102970005F8F5A461A6085F310885346002B08D1A2
:102980000028C6D10BB03CBC90469946A246AB4647
:10299000F0BD089B414618024B461843D047626879
:1029A00006000F00EFF3108572B61368002BFCD001
:1029B000BFF35F8F002F4FDB33003B4302D023690F
:1029C000002B60D12368DA7B002A07D051008A18D7
:1029D00019688C4649466244033A51709A7B002A32
:1029E00001D14A469A734A46DA734B46E168013B85
:1029F000CA5C0132CA545B4623616368BFF35F8FD0
:102A00005A461A6085F3108883E70023002298460F
:102A1000002306920793002300209A46A6E7002988
:102A200001D1002897D10021604600F09DFC43466B
:102A30001A685B680692079343469B689A4643462A
:102A4000DB689846E3684B44013B1B7808931B0204
:102A500003432361002089E72369002BB2D0069A43
:102A6000079B921BBB41002B15DB594604910121AA
:102A7000039149460291414601915146200000913F
:102A8000FFF7B4FEB7E700F063FA32003B0012181C
:102A90004B41002BE9DA0122034B5242E5E7C046E5
:102AA00000340020FFFFFF0FFFFFFF7F10B5144C25
:102AB0006368002B04D00A211248FFF729FE10BDDD
:102AC0002300114A1021206800F068FB032000F069
:102AD00033FA032000F00EFB03200C4900F052FAF9
:102AE000FFF75EFB0A4B9C4603232375D0231B068E
:102AF0001B6860446375074B80006060DC60DAE748
:102B0000202000201C34002089270010F528001008
:102B1000400000340034002000487047202000208E
:102B2000F0B557464546DE464E46E0B585B00193C2
:102B300010AB1B7800270393002380469A4600922F
:102B400043465A68EFF3108972B61368002BFCD025
:102B5000BFF35F8F43461D68AC7B002C4FD06600EF
:102B60002B683619033E9B195A78AA73002A00D1A4
:102B7000EA7342469F705F701F7092684A4B94469A
:102B80000099019AE3181B01634419605A600E9A78
:102B90009A600F9ADA602B689B199F705F701F70A4
:102BA0006B7B9B46002B46D022001900A8686B68FF
:102BB00098472A68002831D05B4658465B005B4442
:102BC0009619033BB070D118D35C002B00D0737002
:102BD0005B460C706B735C452ED04346DB681B195B
:102BE000013B187843465B68BFF35F8F1F6089F332
:102BF00010885346002B2ED10002204307E05B686B
:102C0000BFF35F8F1C6089F310880120404205B03C
:102C10003CBC90469946A246AB46F0BD5B465B0085
:102C20005B44033BD3189C709119925D002A00D03D
:102C30005A705B460B706C734346187D009A019B7B
:102C400000F0E6F982460028C7D043462100186804
:102C500000F02CFCC1E7039B002B23D00E9B00202F
:102C60000F999847030004000D000B431AD0002968
:102C70000ADA009A019B121BAB4100920193002BD0
:102C80000ADB039B9A465BE700F062F924184D418A
:102C900000940195002DF4DA0123044C5B4200936B
:102CA0000194EEE70020B2E7FFFFFF0FFFFFFF7F79
:102CB00070B542680400EFF3108572B61368002BFC
:102CC000FCD0BFF35F8F2068CAB2437B93420AD027
:102CD000FF230B405E00F3180668B4466344033BD1
:102CE0009B78002B13D0E668FF23B4460B40634467
:102CF000013B090A1E78C9B28E420DD000206368DC
:102D0000BFF35F8F00221A6085F3108870BD2269BF
:102D10008A42F3D12361F1E7110000F0C7FBEEE72F
:102D2000407D7047F0B504000D0006267642F71787
:102D3000C64636196F4100B584B08F4214D811D001
:102D400000F006F932003B00121A8B41002B15DC13
:102D5000002B3ED02000290000F004F904B004BC90
:102D60009046F0BD8642EBD90026002700F0F0F82F
:102D700032003B00121A8B41002BE9DD0023029345
:102D80000193154B3200009314483B00FFF7C8FE37
:102D90000028DFDB00239846BC46114A114F7B6AAE
:102DA0009C4504D8B96A8E42D4D99C45D2D11168C9
:102DB000EFF3108072B60B68002BFCD0BFF35F8F6F
:102DC0001368BFF35F8F4146196080F3108820BFFE
:102DD000E5E7002ABED0D1E7BD2700102020002063
:102DE0001C3400200040054070B5060000F0B0F82B
:102DF000FA2204000D00002330000021920003F0AD
:102E000057FF00196941002902DBFFF78BFF70BDF6
:102E1000012001494042F8E7FFFFFF7F70B5EFF363
:102E2000058305000C0084B0002B0FD0104B002050
:102E3000596A8C4203D89B6A0130AB4201D304B07B
:102E400070BD641A611E8C41E0B2F8E7094E02932E
:102E50000193094B0200009330000B00FFF760FE66
:102E6000011EE3DD20BF3000FFF722FFDEE7C04692
:102E70000040054020200020BD270010F0B5EFF3F2
:102E80000582D6464F4646461000C0B51038EFF3CF
:102E9000108872B6214C2368002BFCD0BFF35F8FE3
:102EA0000123190081401E4D1F006963AA461D4D74
:102EB00029601D4D2E78AC463500C5402F402B4271
:102EC00015D05346194D5F6A83005D59AF4218D340
:102ED000174A8E439B5862461670BFF35F8F0022DD
:102EE000226088F31088002B06D0984704E0BFF3D7
:102EF0005F8F276088F310881CBC90469946A246D5
:102F0000F0BD0C4B92009C46624413681360BFF303
:102F10005F8F0023236088F31088EDE7280100D03D
:102F2000004005403C70054051340020283400200A
:102F3000302E0020D03F054010B50100024A034862
:102F4000FFF7AEF810BDC046BCE000104C340020C6
:102F5000034B596A0A00986A596A8A42FAD1704743
:102F600000400540064A536A9942FCD807D1044BF9
:102F700002E05A6A914202D19A6A8242F9D37047BA
:102F80000040054070B504000D00EFF3108672B6E6
:102F90001A4A1368002BFCD0BFF35F8F002D1BD0A3
:102FA0002000FFF749F9164981420AD02000FFF7B7
:102FB0004BF901212000FFF70FF90123A340114A2B
:102FC0001360114BA400E550BFF35F8F00220B4B41
:102FD0001A6086F3108870BD0B4BA200D5500122F9
:102FE000A2400A4920000B7893430B700449FFF775
:102FF00035FA00212000FFF7EFF8E5E7280100D0BF
:103000007D2E001038600540302E00205134002005
:10301000F0B54F46D6464646C0B50700304C616A0B
:103020000D00A66A616AA942FAD18B4208D805D080
:1030300001201CBC90469946A246F0BDB242F7D989
:10304000EFF3108972B6274801680029FCD0BFF35E
:103050005F8F01252449BD408C460978204C0E0025
:103060002E438846F1B28A46614650460870391DA3
:103070001E48890065630A51B9000B50216A00207F
:10308000294219D0616A0800A66A616A8142FAD1B0
:103090008B4219D801D1B24216D8C2451DD0104B6F
:1030A0001F201D625D6301230740BB40104A1E388C
:1030B0001360634642461A70BFF35F8F0022094BCC
:1030C0001A6089F31088B4E70020BFF35F8F0022F5
:1030D000044B1A6089F31088ABE70120ECE7C04687
:1030E00000400540280100D0513400202834002041
:1030F00080E200E010B5EFF3108472B60A490B6865
:10310000002BFCD0BFF35F8F01238340074A0848A0
:10311000136202789A430270BFF35F8F00230B6043
:1031200084F3108810BDC046280100D0004005403F
:103130005134002070B505000E001400002924D081
:10314000002A24D080686B689847296800280ED030
:1031500063001B197200033B9219CB18033A9E704F
:1031600088188A5C002A14D1047030000EE07300C5
:103170009B196200033B1219CB18033A9C70881804
:103180008A5C002A00D05A700670200070BD0800CA
:10319000FCE75A7004703000F8E7C04630B5836031
:1031A0000023CCB243730133047342608373C4734E
:1031B0000D000068012C06D9421C0133DBB21370EC
:1031C00003329C42F9D1FF2129404B0059180023BA
:1031D00040180338437030BDF8B5CE464746060068
:1031E0000C0080B5002907D04D0003686D18033D21
:1031F0005A195778002F04D120000CBC90469946EC
:10320000F8BD7900C919033988464344597889467D
:1032100000215970517073683A0021008068984706
:103220003368002814D042469A18947059195B5D8F
:10323000002B00D053700F70270049463000FFF775
:10324000CBFF390002003000FFF774FF0400D3E722
:10325000424641465D19AF709A185B5C002B00D066
:103260006B701470E9E7C046F0B557464546DE4638
:103270004E46E0B50D006B0001685B19DF1E0400CF
:10328000C85D83B00192CA19002850D043001B18B2
:10329000033BCB185E78B446002E1AD1019E002E57
:1032A00042D0E67B002E04D073009B19CB18033B61
:1032B0005D70A37B002B00D1A573E57300282FD18F
:1032C0000023537003B03CBC90469946A246AB46DF
:1032D000F0BD72006244033A89184A789046002291
:1032E0004A7091465A70010032002000FFF722FF19
:1032F00043468246002B07D05B0021684344033BD2
:10330000CB185A78002A16D1424651462000FFF7C2
:1033100011FF2168019BCA19002BC2D10028CFD010
:1033200043001B18033BCB1800219970C8E7019B91
:10333000002BB6D1C4E7500080180338091848782C
:10334000834648464870587041462000FFF7F2FE19
:10335000594680462000FFF73FFF4146020020000B
:10336000FFF7E8FE8046CFE7F0B54E464546DE461D
:103370005746E0B5467B040075000068AD19033D73
:1033800083B00191415D4219002952D04B005B1876
:10339000033BC3185F78BC46002F1CD1019D002D54
:1033A00044D0E57B002D04D06B005B19C318033BB0
:1033B0005E70A37B002B00D1A673E673002931D188
:1033C000002330005370617303B03CBC90469946B3
:1033D000A246AB46F0BD7A006244033A80184278B8
:1033E00093460022427091465A7020003A00FFF73F
:1033F000A1FE5B468046002B07D05B0021685B4442
:10340000033BCB185A78002A17D15A464146200070
:10341000FFF790FE019B010020684219002BC0D1EC
:103420000029CDD04B005B18033BC31800209870D7
:10343000C6E7019B002BB4D1C2E7500080180338C7
:103440000918487882464846487058705946200006
:10345000FFF770FE53468346002B07D05B002168C0
:103460005344033BCB185A78002A06D1594652469A
:103470002000FFF75FFE8346C7E75000801803383F
:10348000091848464F784870587051462000FFF799
:1034900051FE390081462000FFF79EFE494602009A
:1034A0002000FFF747FE8246E0E7C04670B5040003
:1034B00000292CD0437B8B422ED005684800401851
:1034C000033828188278002A21D053009B18033B28
:1034D000EA5CEE188A4202D11BE0002A08D05300B1
:1034E0009B18033BEB185A788A42F6D142785A70FF
:1034F00000230122837043702000FFF7B5FE617B3B
:1035000002002000FFF716FE6073012000E000209B
:1035100070BD43783370EBE701221900FFF7A4FE7A
:1035200060730120F4E7C04630B50C2083B000F092
:10353000B3F9FEF7ADFD00280ED0944B944A1A6003
:103540005A609A60DA601A615A619A61DA611A62A5
:10355000904A5A6203B030BD8F4CA06700F0F0F97A
:1035600001228E4B1A60636C012BFCD103228C4B21
:103570001A60894A936B012BFCD101330121894ADE
:1035800089480093043300F033F90523874A0093F8
:103590000121874800F02CF9864B5A68FF2A02D88F
:1035A000802252005A608022784C7D4B21691201A2
:1035B000804D1A60002905D0606901F041FE01309C
:1035C0000138FDD1E0217B4B02201A681140802296
:1035D00052012A43116019684840032101401160DB
:1035E00004219A681142FCD08022802192012A4352
:1035F00009011160802252005A606F4B23616F4BAA
:103600005968FF2900D85A6003226C48634B012196
:103610001A60020093681942FCD0E02513681D402F
:1036200080235B0103431D6012684A40032111405F
:1036300019600221614A93681942FCD080238021DD
:103640009B0103430901196080215D4B49005160D2
:1036500063615C4B5A68FF2A00D8596080225A4B3C
:10366000E1691201574D1A60002905D0606901F027
:10367000E7FD01300138FDD1E02252490B681A40C4
:1036800080235B012B431A60802380229B012B4304
:1036900012011A6080223E4B52004A60E3614B4B9C
:1036A0005968FF2900D85A608022494B216A1201CB
:1036B000464D1A60002905D0606901F0C1FD013056
:1036C0000138FDD1E02241490B681A4080235B019B
:1036D0002B431A60802380229B012B4312011A6026
:1036E000802380225B004B60294BD2022362394B3E
:1036F0005968914200D25A608022374B616A1201A8
:10370000344D1A60002905D0606901F099FD01303F
:103710000138FDD1E0222F490B681A4080235B015C
:103720002B431A60802380229B012B4312011A60D5
:103730008023DB024B60174B6362284B5A68FF2AD9
:1037400002D8802252005A608022254BA1691201C2
:10375000224D1A60002905D0606901F071FD013029
:103760000138FDD1E0221D490B681A4080235B011E
:103770002B431A60802380229B012B4312011A6085
:1037800080235B004B600E4BA361E3E64C2F0020CF
:10379000006CDC021BB70000008000403CB0004021
:1037A00030B00040002F685900800240008C8647EE
:1037B00000C0024030800040001BB7003C80004049
:1037C000405973075480004054B00040608000406E
:1037D00060B000406C8000406CB000404880004009
:1037E00048B00040014B8000C05870474C2F00206B
:1037F000F8B504000C2017001D000E0001F020FD9C
:103800004101091A8B01591AC900091889013800A8
:1038100001F016FD069A2B04120313432268002AB6
:1038200021DB194AA21851424A41802149018C46A4
:1038300052420A40154962440A6015490A60154916
:1038400017008D68AF43FBD1C021221D89011143B0
:1038500021222660A0600A602268002AFCDAE36068
:1038600008230B60F8BD3F2221680A40B242D8D13C
:10387000A2681205120D8242D3D1EE21E268C9027C
:103880000A409A42CDD1EDE70040FDBF00E0004084
:1038900000F0004000C000408023024A9B00034328
:1038A000D36270470080054010B5140080221B4B86
:1038B000D2051A6000281AD00123194A1843194B5F
:1038C000DA61194A42401A62596298628022134BA7
:1038D000D2051A601549164A1160E022D2041A6016
:1038E000002C07D18022134B12061A6010BD0D4B1D
:1038F000D861EBE780236201121B920012191201BA
:103900005B049A4200D30C4A0C4B1A60054B5A6078
:103910008022084BD2051A60E8E7C04600B0054097
:10392000D3C007B0008005402D3FF84FFCFF0100D9
:103930000820014000A00540FFFFFF00F0330020F9
:10394000AA23064A1B0113602F230549D360054BA8
:1039500019605368002BFCDA7047C04600400240F3
:1039600000B0FA00006002402C4B2D4A70B51A607E
:103970002C4A2D4B2D491A6010008B689843FBD1BF
:103980002B4C2C4B9C4209D2013B1D1BAD08013531
:10399000AD002D1908CC9847AC42FBD1FFF7C4FD10
:1039A000254A214B1A60214A9368DB018033FBD101
:1039B0004022224B224C234D9A675A671A67DA66D7
:1039C000AC4208D223682000002B21D00834FEF737
:1039D000B5FEAC42F6D31C4C1C4DA168C022280099
:1039E00003F032FAA560FEF7CDFBFEF76BFEFFF7A2
:1039F0005DF8174C174B9C4209D2013B1D1BAD08CB
:103A00000135AD002D1908CC9847A542FBD170BDFA
:103A10000834FEF785FEAC42D4D3DCE700E000407A
:103A2000BFCDFBFEFE7F3C0000F0004000C0004028
:103A30000029002010290020FFFFFF0100F00140B5
:103A4000F82800200029002000ED00E00000002000
:103A5000102900201C29002000BEFDE7094A0300B0
:103A60001068002805D00849C3188B4207D8136096
:103A7000704706480449C31810608B42F7D90120EB
:103A80004042F5E7E82F00200000042034370020F2
:103A900000207047012040427047C04610B5FFF734
:103AA000DBFFC0460FB400B5084883B003F028FB25
:103AB000049B002B07D005A91800019101F04AFBD7
:103AC000034803F01DFB0120FFF7C6FFE0E00010F4
:103AD0008CB4001010B50148FFF7E4FFF0E00010CF
:103AE0009A4200D2885470477047C046F8B557468E
:103AF0004E46DE464546E0B51F000A9B05009B4644
:103B00000D9B0E00914692469B0718D10B9B0C9A79
:103B1000934214D213000B9AB8469B1A4B444C465E
:103B20000F0006001D00220043460134390020200A
:103B3000B047AC42F7D1AA4635003E0047460B9B42
:103B4000002B38D09A441C00D04653461A1B5B46C3
:103B5000013C185D31003B00A847002CF5D10D9BBE
:103B60009B0721D543464A469C1A0C9BA3421BD96E
:103B70003A009A464F469146E2194B4631002020C2
:103B80000134A8475445F7D343460C99DB1B013356
:103B9000B9460022994203D343464A1E4A44D21AE8
:103BA000434690460133984440463CBC9046994673
:103BB000A246AB46F8BDD046D1E7C046F0B54F4669
:103BC0004646D646C0B584B098460EAB1B78129FC9
:103BD000994694460D9C109B119EBA0725D4002E41
:103BE00069D19C4200D3C2E001223A4092461F2C88
:103BF00000D9BBE00C9A551E302201E0202C03D0E6
:103C000001342A55A342F9D85246002A0DD0B442B5
:103C10000BD21F2C62D80C9A551E302201E0202CAA
:103C20005CD001342A55B442F9D1FA0635D57A056B
:103C30005DD4002C57D10F9B102B00D17CE00F9B43
:103C4000022B00D18DE030230C9A012413704B46D7
:103C5000002B27D02D230C9A135501340C9B624660
:103C600000930397434602960194FFF73FFF04B089
:103C70001CBC90469946A246F0BDBB0663D4202CDE
:103C8000ECD00C9B1A19013478231370202CE5D04A
:103C900030220C9B1B191A700134202CDED04B46AD
:103CA000002BD7D17B0735D43B07D7D520230C9ADF
:103CB00013550134D2E7012215003D40AA463A428D
:103CC00020D04A46002A2AD10C323A4227D19C42BF
:103CD0009DD21F2C00D88DE7202E19D92024FA065A
:103CE000BCD57A0503D4A3421BD0A64219D00F9BA2
:103CF000102BC2D0022BC9D1202CAFD00C9B1B198A
:103D0000013440E09C4200D38FE71F2C00D871E7BC
:103D100020248AE72B230C9A135501349EE7013E99
:103D2000D5E7631E012C00D185E70F9A102A20D019
:103D3000022A25D01C00ABE7BB060DD478230C9AD1
:103D400001241370A4E7202C00D187E758220C9B94
:103D50001B191A70013499E758230C9A0124137027
:103D600096E70C9A60330124137091E72024002613
:103D70005BE7023CBA06E9D40C9A12191C0083E7EF
:103D80000C9A9246534462221A707FE710B50028BD
:103D900000D110BD03F068F9FBE7C0460B0010B579
:103DA000002802D049681B68984710BDF0B5DE4670
:103DB000574645464E46E0B59BB09B46249B0A902D
:103DC0009846259B0B910C924046424619009A4614
:103DD00001F007FD002800D0E8E0012240465146EE
:103DE0007F4B524201F0F8FC002800D0DEE00122B7
:103DF000404651467B4B524201F0D8FC002800D08F
:103E0000D4E0002200234046514601F0CFFC0028B8
:103E100000D0CAE15346C14609938023289ADB00AB
:103E20001A400E92289A1A4201D1062326934C4634
:103E3000099B234300D0D9E0289B002600271B05BF
:103E400000D4AEE100230D93269B19000D9B9942EF
:103E500000DCB0E1C81A431E26938023289ADB00B9
:103E60001A430023002528920D93279B0024AB4280
:103E700000D95C1B0223289A1A400E92289A1342FA
:103E800003D06B426B415B421C400D9B002B07D063
:103E90004846099932003B0001F01FFC8146099118
:103EA000002200234046514601F080FC002805D046
:103EB000802000068446099961440991289A4A4B5A
:103EC0000A9E13404A460493269B0B990293099B32
:103ED00003940092019330005B460C9A884600F0F0
:103EE000A1F90400002D72D0289B220098061F2300
:103EF000C017984341465B466530B0470D9B671C31
:103F0000DA179C18DB0F98466B1E99460025544023
:103F100001E0202D13D00AAA94461F2320006344F9
:103F20000A2101355E1901F08BF930313170200022
:103F30000A2101F085F926000400092EE9D805239D
:103F400006934B460593002304930A330393434699
:103F50003A000A9E0B9F029312AB009339005B4616
:103F600030000195FFF72AFE0E9B0400002B2ED097
:103F70000C9B279AC51AAA4229D93C00814698462B
:103F80001700434621005A1920205B460135B047EF
:103F9000AF42F6D84C460C992798631A0133002299
:103FA000984200D30AE10134141910E0289B4246DC
:103FB0000493279B0B990393269B0A9802935346DD
:103FC000009201935B460C9A00F02CF9040020004B
:103FD0001BB03CBC90469946A246AB46F0BDC046DD
:103FE000FFFFEF7FFFFFEFFFFFF7FFFF764B099D1E
:103FF0009C466800400D604401F006FC734A744B17
:1040000001F089FB734A744B01F05EFB2B03734A8A
:104010001B0B1A4306000F00714B1100484600228B
:10402000099501F048FB6F4A6F4B01F074FB0200E9
:104030000B003000390001F047FB01F0FDFB0D9053
:1040400001F0E2FB694A6A4B04000D0001F063FBDA
:104050000022684B01F038FB01F0EEFB664A0600D7
:10406000664B2000290001F056FB040030000D00D3
:104070000F9601F0C9FB624A624B01F04CFB020053
:104080000B002000290001F016FB02000B000600C7
:104090000F0001F040FB320004000D003B00300037
:1040A000390001F011FB002210901191564B2000B5
:1040B000290001F012FB0022544B01F005FB020025
:1040C0000B002000290001F008FB0022504B01F0FA
:1040D000FBFA02000B002000290001F0FEFA0D009F
:1040E000802132003B000400C905002001F0E3FA02
:1040F00002000B002000290001F0E6FA02000B008C
:104100001098119901F0E9FA0022344B01F0DCFA21
:10411000404A0F9B9446634400221B0501F0FBFAC2
:1041200006000F0002000B004846099901F03EFB13
:1041300000280AD00D9B3000013B39000D9300226E
:10414000324B01F0CAFA06000F00C6250D99330064
:1041500063318D42AD4128996D420435090500D483
:1041600083E63B4300D16FE6099C484621002A4A7A
:104170002A4B01F029FB002808D0002248462100E4
:10418000274B01F013FB002800D05DE6269B002B97
:1041900000D16AE60E9B5A1E9341269AD31A2693A3
:1041A00063E6002304250D935FE680231B0653443A
:1041B000C146099331E6002326934EE60A00844661
:1041C000013A6244121BEEE601FCFFFFFB799F50AF
:1041D0001344D33FB3C8608B288AC63F0000F03F2A
:1041E0000000F83F61436F63A787D23F71A379094D
:1041F0004F930A400000E03F1655B5BBB16B02403B
:10420000EF39FAFE422EE63F00002C400000244029
:1042100000001840FF0300002D431CEBE2361A3F5C
:1042200080842E41F0B54E46DE4657464546E0B501
:1042300097B09946209E219F229B834698460791DE
:104240000C923B0032003000390001F0CAFA00281D
:1042500000D0C1E1012230003900CA4B524201F0C6
:10426000A5FA002800D0E0E0012230003900C64B5A
:10427000524201F0B1FA002800D0B6E0002230002E
:104280003900C24B01F0A8FA002800D098E00022C3
:1042900030003900BE4B01F089FA002800D08FE0D1
:1042A000002200233000390001F080FA002800D0FD
:1042B000B0E000230D93249B5B0501D406239846B0
:1042C00008AB9C461722002430234146624404E098
:1042D000013413550139202C01D00929F8D888461A
:1042E0003000390001F0A8FA4346DA00A94B050076
:1042F0009B181A685B680892099301F085FA02001E
:104300000B003000390001F0D6F9089A099B01F042
:1043100002FA0A900B9101F0B3FA824601F070FAAA
:1043200002000B000A980B9901F0C5F900229A4B84
:104330000A900B9101F050FA002800D1C0E001234F
:104340009C46E244504601F05BFA02000B000898DC
:10435000099901F031FA002802D000239A4601356C
:104360004346002B69D008AB17269C460895664447
:10437000554614E001235B4243440A2128009A4633
:1043800000F05EFF013430313719397028000A21FE
:1043900000F056FF092D00D8D5E0D0460500202CAE
:1043A000E8D10323249A1340012B00D100E10EAB86
:1043B0009846249B01940393239B029343461EE05B
:1043C000249B58460493239B0096019703934346EE
:1043D0000C9A029307994B46FFF7E8FC17B03CBCD8
:1043E00090469946A246AB46F0BD249B5B070ED48F
:1043F00003226A4B2499019203912399029100931D
:1044000058464B460C9A0799FFF770FBE6E70422E3
:10441000634BEFE73B0032000020002101F04BF935
:10442000012306000F000D9345E7249B0393239B74
:104430000293042301935B4BE1E7280001F0E4F9C8
:1044400002000B003000390001F035F9524B002218
:1044500006000F0001F0AAF90EAB984600280AD119
:104460000022300039004C4B01F0B6F9002802D18F
:10447000EB0700D50135202C32D008AA944617232B
:10448000280063440A2101341E1900F0B1FE3031C6
:10449000280031700A2100F0ABFE051EEBD103238A
:1044A000249A1340012B00D191E01F2C00D980E702
:1044B0000D9B002B3BD02D2342461355013478E74A
:1044C00000220A980B99344B01F070F9002800D0B3
:1044D00046E75346002B67D101239C46E2443FE761
:1044E0000323249A1340012B00D062E7239B002B67
:1044F00000D15EE70D9B002B03D1249A0C331342AD
:1045000002D0239B013B2393239B9C42CDD208AB3B
:104510009C461722302362441F2C06D8239901346D
:1045200013558C42C1D0202CF8D1202441E7249B84
:104530005B0721D4249B1B0700D43AE72023424683
:104540001355013435E75746089D202C37D02200FB
:1045500030214046002F08D00132B154202A43D0E8
:10456000D3431B191B18002BF6D10EAB98462E23F4
:104570004146541C8B547EE72B234246135501348D
:1045800017E7C046FFFFEFFFFFFFEF7F65CDCD418F
:1045900065CDCDC1F8E200100000E03FFCE0001066
:1045A00000E100100CE10010DB0700D4D8E693E72F
:1045B000239B002B00D1FAE60EAB98469AE7032323
:1045C000249A1340012B00D0F1E60EAB9846239BB2
:1045D000002B00D169E78DE7249B0393239B029373
:1045E00003230193064B0AE70323249A2024134054
:1045F000012B00D0DBE6239B2024002BDCD1D6E668
:1046000008E10010F0B5DE464E4657464546E0B597
:104610009FB01C00289B93460993CF4ACF4B8946F5
:1046200008901A60002900D116E2002320789A46EB
:10463000002800D118E226001D004C460AE02A009E
:104640006F1C5B46089D2100A8473D00013630786D
:1046500000287AD02528F2D110239A46083B9946A3
:10466000043B9846023B00219C46721C10781600C1
:104670000300203BDBB2102B03D8B94F9B00FB5843
:104680009F460300303B092B3CD900230A932A287C
:1046900000D171E0002398462E2847D00300683BE4
:1046A000DBB2122B1FD8AF4A9B00D3589F46012381
:1046B00001321943DAE7634601321943D6E743462C
:1046C00001321943D2E7534601321943CEE74B4634
:1046D00001321943CAE770786C2800D1BFE2802309
:1046E0005B00194301360300253BDBB2532BA6D8F0
:1046F0009D4A9B00D3589F4680235B0070781943E6
:104700000136F0E700270300B800C0190136400069
:10471000C018337830381A00303A0700092AF3D924
:104720000A901800002398462E28B7D1802370786D
:10473000DB0019430300303B721C092B00D895E1C4
:104740002A2800D1A6E11600A8E7A146AA462C0017
:10475000D34503D801235B425B449A465B465246ED
:1047600049460020089DA84720001FB03CBC904649
:104770009946A246AB46F0BD099B40CB0A96002E57
:1047800003DB50780993561C84E7283801437042B4
:104790000A9009935078561C7CE7782800D1D4E120
:1047A000582800D168E26F2800D152E3622800D176
:1047B000D8E110230A009A430B92692801D000F037
:1047C000A2FC0A230C934B0500D4D5E101230B9ADC
:1047D0009A430B92692800D1CEE1642800D1CBE145
:1047E0000B9A802311009B0019408A461A4200D080
:1047F00032E3802311005B00194089461A4201D040
:1048000000F002FC13005B0600D510E30B9B1B06B7
:1048100001D400F06EFC099B04CB1204120C9246EA
:1048200009935346002B00D064E30B9A1033110018
:1048300099430B91520500D45CE3002399460B9BEE
:1048400006930A9B0593434604930C9B0393002312
:10485000DEE27078682800D107E280230136194330
:1048600041E780239B007078194301363BE74628D7
:1048700000D174E10722099B0491073393430A9AFC
:1048800019000392424602920CC9089800920193C3
:1048900009912A005B462100FFF7C4FC01360500A0
:1048A000D5E6099B1A0008CA9146002B00D105E104
:1048B000212211438A460EA884461F21614409958E
:1048C00000220F27A4460D0002E0202A0CD00B0086
:1048D0003C001C4020003730092C00D8073801323A
:1048E000A85419090F2BF0D86446099DF0E08B07F6
:1048F00000D4D1E1099B2A0099466B1C98464B468F
:1049000001CB21009946089F5B46C0B2B8470A9B7D
:104910009C466544012B00D890E2B2465E4647466D
:10492000A846089D3A003300013721002020A847FF
:104930004745F7D1B3464B4656463D0009930136ED
:1049400085E62A006F1C5B46089D21002520A847AC
:1049500001363D007BE6C04605460010EC330020E2
:1049600014E1001058E10010A4E10010099B04CBF1
:10497000994643460992002B00D097E013789C4655
:10498000002B00D1B3E302235B425A1C099B9246E1
:1049900018000A9F0B92504402E0834200D169E163
:1049A0005A780133002AF8D1099A0A979B1A0B9377
:1049B00080230A00DB001A400C92194204D00B9BA2
:1049C000434501D943460B9302231A000A400D9236
:1049D0000B4200D184E16046002823D00C9B002BC1
:1049E00000D124E1A844C246099B57465B1B984668
:1049F000089BB2462A0026005C469B4609E023003D
:104A00003100551CD8474346585D002800D13FE18E
:104A10002A009742F3D1A3463D00340056460D9B31
:104A2000002B69D00B9B0A99A846994264D98C4601
:104A30006544ED1A089B47469A46B04626005C46F8
:104A40003A002300013731002020D047AF42F7D190
:104A5000A346340046464FE0D24B2078089300230B
:104A60009A46002800D0E6E5002471E64346060099
:104A70000A9F9800C0180132400080191678030080
:104A800030003038303B0928F3D930009846160002
:104A90000A9703E6099B023604CB9046D243404670
:104AA000D2171040804609933078F7E513789C467A
:104AB000002B00D11AE34346013B66E710220800B1
:104AC00090431132104382460022490500D4F2E699
:104AD00053460693082305934346049310230393F8
:104AE0000023029316AB019200932A005B4621003B
:104AF0000898FFF763F805004B4601360993A6E5D1
:104B0000202302009A43472A04D180231B01194322
:104B100002239843452801D1202319430722099BEA
:104B20000491073393430A9A190003924246029272
:104B30000CC908980092019309912A005B46210054
:104B4000FFF734F90136050081E510230C930C239F
:104B50000A009A430B924B0500D43BE636E620232D
:104B6000194387E602230C930B910B996428EED12D
:104B70000B9B5B0500D529E60B9A802311009B0057
:104B800019408A461A4200D0CEE0802311005B0013
:104B9000194089461A4200D0DBE113005B0600D5BC
:104BA0001DE10B9B09991B0600D499E208C91BB2B1
:104BB000D8171A18424092B209919246DA0F12920F
:104BC000002B09D1802310220B99DB000B4091436D
:104BD0000B91002B00D012E10B9A6123920600D5B5
:104BE00041230EA91F228C46DBB262440A3B574682
:104BF0001395A2464D460C9CB1460D9316000AE053
:104C00003033DBB201357355A74200D21CE1202DB1
:104C100000D119E107002100380000F011FBCBB2F0
:104C20000929EDD90D9A94466344DBB2EAE7099B62
:104C30005F465B1B98460A9BB3469A462600089C33
:104C40002A003B003100A04743460135585D00284B
:104C5000F6D1534634000A935E46BB46DFE6C023D6
:104C60009B00B078194302363DE5C023B078194364
:104C7000023638E50A979BE60C230A009A43143360
:104C80001A4310230B920C934B0500D4A8E59DE525
:104C9000A34634005646C2E60A9A012A00D82EE2FC
:104CA0006B1E9F18089BB046994626005C462A005A
:104CB0002300013531002020C847BD42F7D1A3466B
:104CC00034004646099B3A0001CB210098467D1CE2
:104CD0005B46089FC0B2B847434601360993B6E425
:104CE0000B9A0A98531C904200D80AE243199B1A67
:104CF0001F00089BB24626005C469B462A00230004
:104D0000013531002020D847BD42F7D10A9BA34688
:104D100001330B93099B34001B7856469C46604632
:104D2000002800D05AE6E7E60722099B07339343A1
:104D3000013294469C4462465F6809921A68FB17E8
:104D40001093119310981199030053400E930B0088
:104D50007B400F9394460E9A0F9B121A8B410E9232
:104D60000F93FB0F6246129300233A439A463DD0BD
:104D70000B9A6123920600D541230022DBB20EA9D3
:104D80000A3B8C4691460D9343461F32624413956D
:104D900015964D460E9E0F9FA14690460C9C14936F
:104DA0000FE0C046E93A00103032D2B24346013536
:104DB0005A55BA4500D17CE1202D00D17CE1060096
:104DC0000F00220000233000390000F077FAD2B241
:104DD000092AE9D90D9B9C466244D2B2E6E7FF233B
:104DE000099904C913401A000991E6E60B9A103399
:104DF000110099430B915205BAD5002399460B9B9C
:104E000006930A9B0593434604930C9B0393129BC2
:104E100002934B46019316AB2A00009321005B4698
:104E20000898FEF7CBFE01360500FFF710FCFF22C5
:104E3000099B02CB11408A460993F2E44B46454652
:104E400009930136FFF703FC4E465446A946139DCD
:104E5000D5E708230C9387E60722099B0733934382
:104E6000013294469C44624609921A685B681000BD
:104E70009A4613005246134307D10B9A1033110080
:104E800099430B91520500D5D7E40B9A6123920602
:104E900000D541230022DBB20EA90A3B8C46914685
:104EA0000D9343461F32624457461295A2464D4623
:104EB0000400B14690460C9E13930DE03032D2B2FE
:104EC000434601355A550023BB4200D1FDE0202D59
:104ED00000D1FDE004000F00320000232000390063
:104EE00000F0ECF9D2B2092AE8D90D9B9C46624445
:104EF000D2B2E5E70B9A6123920600D54123DBB2DB
:104F00000EA90A3B1F228C460D932300624454468F
:104F1000129517004D469A46B1460C9E08E0303374
:104F2000DBB201357B55B4420ED3202D0CD00400EA
:104F30003100200000F084F9CBB20929EFD90D9A95
:104F400094466344DBB2ECE74E465446A946129DB4
:104F500075E4099B1A0008CAD91713925A184A40D7
:104F60009146DA0F1292002B08D1802310220B9960
:104F7000DB000B4091430B91002B2BD10B9A61234B
:104F8000920600D541230EAA1F279446DBB20A3BA6
:104F90000D95674455460993A2464C46B1460C9E72
:104FA00008E03033DBB201357B55B4420ED3202DFF
:104FB0000CD004003100200000F042F9CBB20929E6
:104FC000EFD9099A94466344DBB2ECE74E46544667
:104FD000AA460D9D0B9B2A0006930A9B2100059370
:104FE000434604930C9B08980393129B013602934B
:104FF0005346019316AB00935B46FEF7DFFD139B10
:1050000005000993FFF723FB099B04CB91461293FC
:10501000002A08D1802310220B99DB000B4091431A
:105020000B91002B2BD10B9A6123920600D54123C3
:105030000EAA1F279446DBB20A3B0D9567445546DE
:105040000993A2464C46B1460C9E08E03033DBB2D1
:1050500001357B55B4420ED3202D0CD00400310015
:10506000200000F0EDF8CBB20929EFD9099A944657
:105070006344DBB2ECE74E465446AA460D9D0B9BBB
:105080002A0006930A9B21000593434604930C9B38
:1050900008980393002302935346019316AB0093A1
:1050A0005B46FEF78BFD129B050009930136FFF767
:1050B000CEFAB44200D87FE6149B4C460E960F976A
:1050C000A9469846159E139D99E6A64200D8FEE68D
:1050D000139B4E469846A9465446129DFFF7AFFBD8
:1050E00008C9D8171A184240099166E500230B93A6
:1050F0005EE4099B04CB92460993FFF792FB2F00D5
:10510000E0E50B930BE6063B0C932EE50EB4012273
:1051100010B585B007AC08CC010000945242044899
:105120000394FFF76FFA05B010BC08BC03B0184732
:10513000E13A001000B585B003910121029000937F
:10514000034813004A4202A9FFF75CFA05B000BD0C
:105150009D3D001010B5094A0300146884B0002C6E
:1051600008D0012200910648524203A9A04701201D
:1051700004B010BD01F0C4FF0020F9E7EC330020BB
:105180008D3D001001480421014B1847502000209C
:10519000B5510010142310B50100188804331B8882
:1051A000984710BD162310B50100188802331B88DC
:1051B000984710BDF0B5C64600B5002916D0142397
:1051C000040001259846182789004618434621689F
:1051D00018883B88984701C4431E984140420540C7
:1051E000A642F3D1280004BC9046F0BD0125F9E7A2
:1051F000124A936F9B0815D29066D166002905D09C
:10520000FFE7FFE7FFE7516F106F704704B580219C
:105210000906C2175140002800D0C84306F09CF888
:10522000002104BDF0B5146E556E576F166FFFF771
:10523000E3FF1466556657671667F0BD000000D09F
:10524000114A936F9B0813D210665166002905D04E
:10525000FFE7FFE7FFE7516F106F704704B50028C5
:1052600001D00020C04306F077F8002104BDC046FD
:10527000F0B5146E556E576F166FFFF7E5FF1466A5
:10528000556657671667F0BD000000D094464A4A3D
:10529000926F9208624601D228E0C046F0B5464EB1
:1052A000346E756E776F366F00F020F89446424A80
:1052B00014665566576716676246F0BD94463E4AC7
:1052C000926F9208624601D254E0C046F0B53A4E61
:1052D000346E756E776F366F00F04CF89446364A30
:1052E00014665566576716676246F0BD002B24DBCF
:1052F00011D000293EDA00B5C943404200D1013146
:1053000000F038F8C943404200D10131DB4352423A
:1053100000D1013300BD002AEBD1002801D10029C2
:1053200005D00020C90FC90701D1C043410800B50D
:1053300005F0EAFF0022002300BD00B500290ADBCA
:10534000DB43524200D1013300F014F8C94340421C
:1053500000D1013100BDC943404200D10131DB43DE
:10536000524200D1013300F005F8DB43524200D134
:10537000013300BD002923D1002B18D1002A0CD005
:10538000BC460D4F38667A6600210023FFE7FFE731
:10539000FFE77A6F386F67467047002801D00748EB
:1053A000010000B505F0B0FF0022002300BD02009F
:1053B0000B00002000217047000000D0FFFFFFFF1E
:1053C000002B00D0BFE0130C28D1002AE7D080B416
:1053D000114F39667A66FFE7FFE730B4040C7B6F44
:1053E000396F1B0423433B667A66FFE7FFE7FFE75D
:1053F000C04684B27B6F3D6F1B0423433B667A66D5
:10540000FFE7FFE7C04600232C042D0C7A6F386FAE
:1054100000196941B0BC7047000000D0F0B5944657
:105420000025140E01D112020835140F01D112010A
:105430000435940F01D192000235D40F01D15200EE
:105440000135D40B0134254F7C66254C3C660E0C8F
:1054500093B2FFE7FFE7FFE73C6F6643360C770345
:10546000BE467343DF0B5B04C01AB941130C734390
:10547000DB18C91ACE086643360CB64493B27343A0
:105480001F0F1B01C01AB941130C73431F0B1B05DF
:10549000C01AB941860D8F023E436643360C092D72
:1054A00024DB520A7243801A7703460A6643360C9D
:1054B00016235B1BDE40DF40BF1964466643821B38
:1054C0007046043506330100D940A840C01900D306
:1054D0000131A24206D20023F0BD0000000000D03E
:1054E000FFFFFFFF121B0130F3D3F1E709277F1BFA
:1054F000FE406446A2B27243801A00D20139220CE7
:105500007243130C1204821A99410B007046043541
:1055100013370100F940A840801900D30131002B56
:1055200002D1A2420AD2F0BD013000D30131121BD8
:10553000FAD2013BF8D1A24200D2F0BD013000D333
:105540000131121BF7E7F0B51C0C00D080E00CB461
:1055500000251C0A04D11B02160E33431202083523
:105560001C0B04D11B01160F3343120104359C0B95
:1055700004D19B00960F334392000235DC0B02D11D
:1055800092185B4101351C00971864410134464F65
:105590007C66464C3C660E0CFFE7FFE7FFE7C04623
:1055A0003C6F6643360C7703BE4697B27743C01B09
:1055B00000D20139C01B00D201399FB27743C91B09
:1055C000C91B170C77437E04FF0B801BB941CE0823
:1055D0006643360C0C2D33DBB644120B1F053A43E1
:1055E0001B0B97B27743C01B00D201399FB27743A0
:1055F000C91B170C77433E043F0C801BB941860D35
:105600008F023E43664329277F1BFE400C3D7746B1
:10561000AF40BF1930BCA2B2ABB272437343801A21
:105620009941220C7243130C1204801A9941020012
:105630000B000137001BA941F9D2781E0021F0BDF3
:105640000C277F1BFE4077467F0BAF40FF19E0E73A
:1056500000245D1C07D0144F7D663966FFE7FFE725
:10566000FFE7FFE73C6F95B29EB265436643401B80
:10567000B141150C1E0C6543664336042F0C3E43A6
:105680002D04401BB141994204D202000B002000BE
:105690000021F0BD01D19042F7D3801A9941013425
:1056A0009942F2D3F6E70000000000D0FFFFFFFFB1
:1056B00048404140484018B41B4B5B68FC4601938E
:1056C00008BD04DFAB63001018B4174B1B68FC4621
:1056D000019308BD00DFB56300109446134A926F32
:1056E000920809D2624618B40F4BDB68FC4601935E
:1056F00008BD0CDF6D6600100C4AF0B5146E556ED7
:10570000576F166F6246FFF7EEFF084A146655663C
:1057100057671667F0BD18B4034B9B68FC460193AE
:1057200008BD08DF1165001070340020000000D0B3
:10573000FFB550404240504059404B40594000E076
:10574000FFB5154F4C00640D03D0BC4204D10C03CF
:1057500014D80020090D09055C00640D03D0BC427B
:1057600004D11C030AD800221B0D1B0501264B4047
:1057700009D44B4003D58B4200D18242FFBD9942F0
:10578000FCD19042FFBD0B43DB1803431343F5D01C
:10579000C9434918FFBD0000FF07000000B5FFF72F
:1057A000CFFF01D0002000BD012000BD00B5FFF7F4
:1057B000C7FF804100BDC04600B5FFF7C1FF01D95A
:1057C000002000BD012000BD00B5FFF7B1FF01D9E9
:1057D000002000BD012000BD00B5FFF7A9FF8041FA
:1057E00000BD012040054A00121804D85A001218C2
:1057F00001D800207047012070470020704700004A
:105800000021002805D17047C1174840401AFAD03E
:10581000C90713B5064B1B6898470CBC441CA24033
:105820001005120B0349091B09051943114310BD4B
:10583000183400201F04000010B54C00620D8023B6
:10584000D218DB00D21A5B057E2A10DD9E3A13DAED
:10585000CC170903490819435242D140640001346E
:105860001532202A05DAD0400843604310BD0020DD
:1058700010BD0846604310BDC80FC018013810BDE8
:1058800018B4044B5B6AFC46019308BD24DF1D6815
:10589000001000007034002018B4044BDB6FFC468D
:1058A000019308BD7CDF9D6800100000703400206B
:1058B00018B4044BDB6CFC46019308BD4CDF496A0D
:1058C000001000007034002018B4044B1B6DFC461F
:1058D000019308BD50DFE56A00100000703400201D
:1058E000132370B51D78012D15D010DD2748FFF763
:1058F00059FC274C01008022200001F0A5FA022D5E
:1059000006D02448FFF746FC234B186070BD204C9E
:10591000224AA264F5E72E001D4C204AA3085B42F0
:105920001E401D422FD0330022602020B10061189C
:10593000801B0A604A608A60CA600A614A618A61A3
:10594000CA610A624A628A62CA620A634A638A63F5
:10595000CA630A644A648A64CA640A654A658A65D5
:10596000CA650A664A668A66CA660A674A6740085E
:10597000102803D18A67CA67A264C2E71E339B005E
:10598000E250A264BDE70023CFE7C04653440000C5
:10599000703400204C33000018340020796300106C
:1059A00070B504000D001600012A0ED0D20F921916
:1059B0005210FFF7F5FF0B000200FFF7ACFEF307F4
:1059C00003D522002B00FFF7A6FE70BDF0B54646BA
:1059D0004F46D646C0B54E001D00730D99468C4B00
:1059E00014004B4498464B4688B0002B30D0894B6E
:1059F00099452DD04B460022874FFF1A3B05801852
:105A00005941FFF761FF854A854BFFF766FE00228B
:105A1000844B06000F00FFF7DFFE002826D1434627
:105A2000002B31D00022200029007F4BFFF7CCFE55
:105A3000002832D10022200029007C4BFFF7BCFE59
:105A4000002835D043460020002B2ADB002129E026
:105A5000FFF73AFF714A724BFFF73FFE0022714B8E
:105A600006000F00FFF7B8FE0028DBD03000390039
:105A70006F4B0022FFF71FFE6E4B06004B4498460B
:105A800043460F00002BCDD122002B0030003900FF
:105A9000FFF741FE00F090FA04E043460020002B9F
:105AA000D4DB654908B01CBC90469946A246F0BDBF
:105AB0002000290000F030FA0B000200290020002D
:105AC00004920593FFF7F7FD1A220290039100F06C
:105AD000FBF900F021FA0B000200009201934B0049
